{
  "_format": "hh-sol-artifact-1",
  "contractName": "ChannelRegistry",
  "sourceName": "contracts/ChannelRegistry.sol",
  "abi": [
    {
      "inputs": [
        {
          "internalType": "address",
          "name": "platformAddress_",
          "type": "address"
        },
        {
          "internalType": "uint256",
          "name": "platformFeeRate_",
          "type": "uint256"
        }
      ],
      "stateMutability": "nonpayable",
      "type": "constructor"
    },
    {
      "anonymous": false,
      "inputs": [
        {
          "indexed": false,
          "internalType": "string",
          "name": "category",
          "type": "string"
        }
      ],
      "name": "CategoryAdded",
      "type": "event"
    },
    {
      "anonymous": false,
      "inputs": [
        {
          "indexed": false,
          "internalType": "string",
          "name": "category",
          "type": "string"
        }
      ],
      "name": "CategoryRemoved",
      "type": "event"
    },
    {
      "anonymous": false,
      "inputs": [
        {
          "indexed": false,
          "internalType": "uint256",
          "name": "channelId",
          "type": "uint256"
        },
        {
          "indexed": false,
          "internalType": "address",
          "name": "quoteToken",
          "type": "address"
        },
        {
          "indexed": false,
          "internalType": "uint256",
          "name": "registerFee",
          "type": "uint256"
        }
      ],
      "name": "ChannelRegister",
      "type": "event"
    },
    {
      "anonymous": false,
      "inputs": [
        {
          "indexed": false,
          "internalType": "uint256",
          "name": "channelId",
          "type": "uint256"
        }
      ],
      "name": "ChannelUnregister",
      "type": "event"
    },
    {
      "anonymous": false,
      "inputs": [
        {
          "indexed": false,
          "internalType": "uint256",
          "name": "channelId",
          "type": "uint256"
        }
      ],
      "name": "ChannelUpdate",
      "type": "event"
    },
    {
      "anonymous": false,
      "inputs": [
        {
          "indexed": true,
          "internalType": "address",
          "name": "previousOwner",
          "type": "address"
        },
        {
          "indexed": true,
          "internalType": "address",
          "name": "newOwner",
          "type": "address"
        }
      ],
      "name": "OwnershipTransferred",
      "type": "event"
    },
    {
      "anonymous": false,
      "inputs": [
        {
          "indexed": false,
          "internalType": "address",
          "name": "platformAddress",
          "type": "address"
        },
        {
          "indexed": false,
          "internalType": "uint256",
          "name": "platformFeeRate",
          "type": "uint256"
        }
      ],
      "name": "PlatformFeeChanged",
      "type": "event"
    },
    {
      "stateMutability": "payable",
      "type": "fallback"
    },
    {
      "inputs": [
        {
          "internalType": "string",
          "name": "category",
          "type": "string"
        }
      ],
      "name": "addCategory",
      "outputs": [],
      "stateMutability": "nonpayable",
      "type": "function"
    },
    {
      "inputs": [
        {
          "internalType": "uint256",
          "name": "index",
          "type": "uint256"
        }
      ],
      "name": "getCategory",
      "outputs": [
        {
          "internalType": "string",
          "name": "",
          "type": "string"
        }
      ],
      "stateMutability": "view",
      "type": "function"
    },
    {
      "inputs": [],
      "name": "getCategoryCount",
      "outputs": [
        {
          "internalType": "uint256",
          "name": "",
          "type": "uint256"
        }
      ],
      "stateMutability": "view",
      "type": "function"
    },
    {
      "inputs": [],
      "name": "getCategoryList",
      "outputs": [
        {
          "internalType": "string[]",
          "name": "",
          "type": "string[]"
        }
      ],
      "stateMutability": "view",
      "type": "function"
    },
    {
      "inputs": [
        {
          "internalType": "string",
          "name": "category",
          "type": "string"
        }
      ],
      "name": "getChannelByCategory",
      "outputs": [
        {
          "internalType": "uint256[]",
          "name": "",
          "type": "uint256[]"
        }
      ],
      "stateMutability": "view",
      "type": "function"
    },
    {
      "inputs": [
        {
          "internalType": "uint256",
          "name": "channelId",
          "type": "uint256"
        }
      ],
      "name": "getChannelById",
      "outputs": [
        {
          "components": [
            {
              "internalType": "uint256",
              "name": "channelId",
              "type": "uint256"
            },
            {
              "internalType": "string",
              "name": "channelUri",
              "type": "string"
            },
            {
              "internalType": "address",
              "name": "tippingAddress",
              "type": "address"
            },
            {
              "internalType": "string",
              "name": "category",
              "type": "string"
            }
          ],
          "internalType": "struct ChannelRegistry.Channel",
          "name": "",
          "type": "tuple"
        }
      ],
      "stateMutability": "view",
      "type": "function"
    },
    {
      "inputs": [],
      "name": "getChannels",
      "outputs": [
        {
          "components": [
            {
              "internalType": "uint256",
              "name": "channelId",
              "type": "uint256"
            },
            {
              "internalType": "string",
              "name": "channelUri",
              "type": "string"
            },
            {
              "internalType": "address",
              "name": "tippingAddress",
              "type": "address"
            },
            {
              "internalType": "string",
              "name": "category",
              "type": "string"
            }
          ],
          "internalType": "struct ChannelRegistry.Channel[]",
          "name": "",
          "type": "tuple[]"
        }
      ],
      "stateMutability": "view",
      "type": "function"
    },
    {
      "inputs": [],
      "name": "getPlatformFee",
      "outputs": [
        {
          "internalType": "address",
          "name": "platformAddress",
          "type": "address"
        },
        {
          "internalType": "uint256",
          "name": "platformFeeRate",
          "type": "uint256"
        }
      ],
      "stateMutability": "view",
      "type": "function"
    },
    {
      "inputs": [
        {
          "internalType": "string",
          "name": "category",
          "type": "string"
        }
      ],
      "name": "isValidCategory",
      "outputs": [
        {
          "internalType": "bool",
          "name": "",
          "type": "bool"
        }
      ],
      "stateMutability": "view",
      "type": "function"
    },
    {
      "inputs": [
        {
          "internalType": "uint256",
          "name": "index",
          "type": "uint256"
        }
      ],
      "name": "isValidCategoryIndex",
      "outputs": [
        {
          "internalType": "bool",
          "name": "",
          "type": "bool"
        }
      ],
      "stateMutability": "view",
      "type": "function"
    },
    {
      "inputs": [
        {
          "internalType": "uint256",
          "name": "channelId",
          "type": "uint256"
        }
      ],
      "name": "isValidChannelId",
      "outputs": [
        {
          "internalType": "bool",
          "name": "",
          "type": "bool"
        }
      ],
      "stateMutability": "view",
      "type": "function"
    },
    {
      "inputs": [],
      "name": "owner",
      "outputs": [
        {
          "internalType": "address",
          "name": "",
          "type": "address"
        }
      ],
      "stateMutability": "view",
      "type": "function"
    },
    {
      "inputs": [
        {
          "internalType": "string",
          "name": "channelUri",
          "type": "string"
        },
        {
          "internalType": "address",
          "name": "tippingAddr",
          "type": "address"
        },
        {
          "internalType": "string",
          "name": "category",
          "type": "string"
        },
        {
          "internalType": "address",
          "name": "quoteToken",
          "type": "address"
        },
        {
          "internalType": "uint256",
          "name": "value",
          "type": "uint256"
        }
      ],
      "name": "register",
      "outputs": [],
      "stateMutability": "payable",
      "type": "function"
    },
    {
      "inputs": [
        {
          "internalType": "string",
          "name": "category",
          "type": "string"
        }
      ],
      "name": "removeCategory",
      "outputs": [],
      "stateMutability": "nonpayable",
      "type": "function"
    },
    {
      "inputs": [],
      "name": "renounceOwnership",
      "outputs": [],
      "stateMutability": "nonpayable",
      "type": "function"
    },
    {
      "inputs": [
        {
          "internalType": "address",
          "name": "platformAddress",
          "type": "address"
        },
        {
          "internalType": "uint256",
          "name": "platformFeeRate",
          "type": "uint256"
        }
      ],
      "name": "setPlatformFee",
      "outputs": [],
      "stateMutability": "nonpayable",
      "type": "function"
    },
    {
      "inputs": [
        {
          "internalType": "address",
          "name": "newOwner",
          "type": "address"
        }
      ],
      "name": "transferOwnership",
      "outputs": [],
      "stateMutability": "nonpayable",
      "type": "function"
    },
    {
      "inputs": [
        {
          "internalType": "uint256",
          "name": "channelId",
          "type": "uint256"
        }
      ],
      "name": "unregister",
      "outputs": [],
      "stateMutability": "nonpayable",
      "type": "function"
    },
    {
      "inputs": [
        {
          "internalType": "uint256",
          "name": "channelId",
          "type": "uint256"
        },
        {
          "internalType": "string",
          "name": "channelUri",
          "type": "string"
        },
        {
          "internalType": "address",
          "name": "tippingAddr",
          "type": "address"
        },
        {
          "internalType": "string",
          "name": "category",
          "type": "string"
        }
      ],
      "name": "updateChannel",
      "outputs": [],
      "stateMutability": "nonpayable",
      "type": "function"
    },
    {
      "stateMutability": "payable",
      "type": "receive"
    }
  ],
  "bytecode": "0x60806040523480156200001157600080fd5b50604051620037a6380380620037a6833981016040819052620000349162000538565b60006200004062000233565b600080546001600160a01b0319166001600160a01b0383169081178255604051929350917f8be0079c531659141344cd1fd0a4f28419497f9722a3daafe3b4186f6b6457e0908290a3506001805560408051808201909152600781526619d95b995c985b60ca1b6020820152620000b79062000237565b620000df5760405162461bcd60e51b8152600401620000d69062000769565b60405180910390fd5b60408051808201909152600681526563727970746f60d01b6020820152620001079062000237565b620001265760405162461bcd60e51b8152600401620000d69062000769565b60408051808201909152600a815269746563686e6f6c6f677960b01b6020820152620001529062000237565b620001715760405162461bcd60e51b8152600401620000d69062000769565b6040805180820190915260068152651d1c985d995b60d21b6020820152620001999062000237565b620001b85760405162461bcd60e51b8152600401620000d69062000769565b60408051808201909152600781526666696e616e636560c81b6020820152620001e19062000237565b620002005760405162461bcd60e51b8152600401620000d69062000769565b6200020c828262000315565b6200022b5760405162461bcd60e51b8152600401620000d6906200069b565b5050620007e7565b3390565b60006200024482620003c9565b15620002645760405162461bcd60e51b8152600401620000d69062000654565b600954604051600a906200027a90859062000572565b9081526040516020918190038201902091909155600980546001810182556000919091528351620002d3927f6e1540171b6c0c960b71a7020d9f60077f6af931a8bbf590da0223dacf75c7af909201918501906200048c565b507fdb74f4d32b97da9b3b9b907aa3fd5df938c018e13fe235d9883d0a0836c6bddb826040516200030591906200061f565b60405180910390a1506001919050565b60006001600160a01b038316620003405760405162461bcd60e51b8152600401620000d69062000731565b6064821115620003645760405162461bcd60e51b8152600401620000d690620006f8565b600380546001600160a01b0319166001600160a01b03851617905560028290556040517f4eb219df0340f60919e8d674bf59e394f31252dd52d9e11992e45c300f69205290620003b8908590859062000606565b60405180910390a150600192915050565b6000600980549050600a83604051620003e3919062000572565b908152602001604051809103902054108015620004865750816040516020016200040e919062000572565b604051602081830303815290604052805190602001206009600a8460405162000438919062000572565b908152602001604051809103902054815481106200045257fe5b906000526020600020016040516020016200046e919062000590565b60405160208183030381529060405280519060200120145b92915050565b828054600181600116156101000203166002900490600052602060002090601f016020900481019282620004c457600085556200050f565b82601f10620004df57805160ff19168380011785556200050f565b828001600101855582156200050f579182015b828111156200050f578251825591602001919060010190620004f2565b506200051d92915062000521565b5090565b5b808211156200051d576000815560010162000522565b600080604083850312156200054b578182fd5b82516001600160a01b038116811462000562578283fd5b6020939093015192949293505050565b6000825162000586818460208701620007b4565b9190910192915050565b6000808354600180821660008114620005b25760018114620005ca57620005fb565b60ff198316865260028304607f1686019350620005fb565b600283048786526020808720875b83811015620005f35781548a820152908501908201620005d8565b505050860193505b509195945050505050565b6001600160a01b03929092168252602082015260400190565b600060208252825180602084015262000640816040850160208701620007b4565b601f01601f19169190910160400192915050565b60208082526027908201527f4368616e6e656c52656769737472793a2063617465676f727920616c726561646040820152661e48195e1a5cdd60ca1b606082015260800190565b60208082526038908201527f4368616e6e656c52656769737472793a20637265617465206368616e6e656c2060408201527f726567697374727920636f6e7472616374206661696c65640000000000000000606082015260800190565b6020808252602a90820152600080516020620037868339815191526040820152696d20666565207261746560b01b606082015260800190565b6020808252602990820152600080516020620037868339815191526040820152686d206164647265737360b81b606082015260800190565b6020808252602b908201527f4368616e6e656c52656769737472793a20696e697469616c697a65206361746560408201526a19dbdc9e4819985a5b195960aa1b606082015260800190565b60005b83811015620007d1578181015183820152602001620007b7565b83811115620007e1576000848401525b50505050565b612f8f80620007f76000396000f3fe6080604052600436106101185760003560e01c80638da5cb5b116100a0578063a8060a6011610064578063a8060a6014610304578063de5d227414610324578063de8c676b14610344578063f2fde38b14610364578063f3052d26146103845761011f565b80638da5cb5b146102535780638db1afb1146102755780639575f6ac14610295578063a02b161e146102b7578063a5b699a3146102d75761011f565b8063646b4595116100e7578063646b4595146101b9578063678b0a67146101e65780636ea109e0146101f95780636ea8bc101461021b578063715018a61461023e5761011f565b806320576117146101215780632e0dcbf7146101575780634d330b0f146101775780635558f62c146101995761011f565b3661011f57005b005b34801561012d57600080fd5b5061014161013c366004612659565b6103b1565b60405161014e9190612974565b60405180910390f35b34801561016357600080fd5b5061011f610172366004612594565b610415565b34801561018357600080fd5b5061018c6104f7565b60405161014e9190612e7a565b3480156101a557600080fd5b5061011f6101b4366004612689565b6104fd565b3480156101c557600080fd5b506101d96101d4366004612594565b610a14565b60405161014e9190612930565b61011f6101f43660046125cf565b610aa9565b34801561020557600080fd5b5061020e611131565b60405161014e919061287d565b34801561022757600080fd5b50610230611209565b60405161014e929190612864565b34801561024a57600080fd5b5061011f61121d565b34801561025f57600080fd5b506102686112c9565b60405161014e9190612812565b34801561028157600080fd5b5061011f61029036600461254b565b6112d8565b3480156102a157600080fd5b506102aa611364565b60405161014e91906128dd565b3480156102c357600080fd5b5061011f6102d2366004612659565b61150e565b3480156102e357600080fd5b506102f76102f2366004612659565b61198a565b60405161014e9190612e67565b34801561031057600080fd5b5061014161031f366004612594565b611b49565b34801561033057600080fd5b5061011f61033f366004612594565b611c02565b34801561035057600080fd5b5061014161035f366004612659565b611e32565b34801561037057600080fd5b5061011f61037f36600461252a565b611e39565b34801561039057600080fd5b506103a461039f366004612659565b611f3b565b60405161014e919061297f565b6000600454821080156103d35750600554600083815260066020526040902054105b801561040d57506000828152600660205260409020546005805490919081106103f857fe5b90600052602060002090600402016000015482145b90505b919050565b61041d611fff565b6001600160a01b031661042e6112c9565b6001600160a01b031614610477576040805162461bcd60e51b81526020600482018190526024820152600080516020612f3a833981519152604482015290519081900360640190fd5b600260015414156104bd576040805162461bcd60e51b815260206004820152601f6024820152600080516020612ed3833981519152604482015290519081900360640190fd5b60026001556104cb81612003565b6104f05760405162461bcd60e51b81526004016104e790612c5a565b60405180910390fd5b5060018055565b60095490565b60026001541415610543576040805162461bcd60e51b815260206004820152601f6024820152600080516020612ed3833981519152604482015290519081900360640190fd5b6002600155610551846103b1565b61056d5760405162461bcd60e51b81526004016104e790612dde565b6001600160a01b0382166105935760405162461bcd60e51b81526004016104e790612b62565b61059c81611b49565b6105b85760405162461bcd60e51b81526004016104e7906129d9565b6000848152600660205260408120546005805490919081106105d657fe5b6000918252602091829020600360049092020101805460408051601f600260001961010060018716150201909416939093049283018590048502810185019091528181529283018282801561066c5780601f106106415761010080835404028352916020019161066c565b820191906000526020600020905b81548152906001019060200180831161064f57829003601f168201915b5050505050905083600560066000888152602001908152602001600020548154811061069457fe5b906000526020600020906004020160010190805190602001906106b8929190612302565b506000858152600660205260409020546005805485929081106106d757fe5b906000526020600020906004020160020160006101000a8154816001600160a01b0302191690836001600160a01b0316021790555081600560066000888152602001908152602001600020548154811061072d57fe5b90600052602060002090600402016003019080519060200190610751929190612302565b50816040516020016107639190612783565b604051602081830303815290604052805190602001208160405160200161078a9190612783565b60405160208183030381529060405280519060200120146109d25760006008826040516107b79190612783565b90815260408051918290036020908101832060008a81529152205491506007906107e2908490612783565b908152602001604051809103902060016007846040516108029190612783565b908152602001604051809103902080549050038154811061081f57fe5b906000526020600020015460078360405161083a9190612783565b9081526020016040518091039020828154811061085357fe5b9060005260206000200181905550600060056007846040516108759190612783565b908152602001604051809103902060016007866040516108959190612783565b90815260200160405180910390208054905003815481106108b257fe5b9060005260206000200154815481106108c757fe5b9060005260206000209060040201600001549050816008846040516108ec9190612783565b908152604080519182900360209081018320600086815291522091909155600790610918908590612783565b908152602001604051809103902080548061092f57fe5b600190038181906000526020600020016000905590556007846040516109559190612783565b9081526040519081900360200181205490600890610974908790612783565b90815260408051918290036020908101832060008c8152915220919091556007906109a0908690612783565b908152604080516020928190038301902060008a81526006845291822054815460018101835591835292909120015550505b7f438fa33045296bf368bbed9242d2664aa5788fe9e695955d4537b091700e0bc485604051610a019190612e7a565b60405180910390a1505060018055505050565b6060610a1f82611b49565b610a3b5760405162461bcd60e51b81526004016104e7906129d9565b600782604051610a4b9190612783565b9081526040805191829003602090810183208054808302850183019093528284529190830182828015610a9d57602002820191906000526020600020905b815481526020019060010190808311610a89575b50505050509050919050565b60026001541415610aef576040805162461bcd60e51b815260206004820152601f6024820152600080516020612ed3833981519152604482015290519081900360640190fd5b60026001556001600160a01b038416610b1a5760405162461bcd60e51b81526004016104e790612b62565b610b2383611b49565b610b3f5760405162461bcd60e51b81526004016104e7906129d9565b60006001600160a01b03831615610b565781610b58565b345b90506000610b7c6064610b76600254856120d690919063ffffffff16565b90612138565b905060006001600160a01b038516610c1b578115610c16576003546040516001600160a01b03909116908390610bb19061280f565b60006040518083038185875af1925050503d8060008114610bee576040519150601f19603f3d011682016040523d82523d6000602084013e610bf3565b606091505b50508091505080610c165760405162461bcd60e51b81526004016104e790612d91565b610f56565b3415610c395760405162461bcd60e51b81526004016104e790612d44565b604051636eb1769f60e11b815284906001600160a01b0387169063dd62ed3e90610c699033903090600401612826565b60206040518083038186803b158015610c8157600080fd5b505afa158015610c95573d6000803e3d6000fd5b505050506040513d601f19601f82011682018060405250810190610cb99190612671565b1015610cd75760405162461bcd60e51b81526004016104e790612afb565b6040516370a0823160e01b81526000906001600160a01b038716906370a0823190610d06903090600401612812565b60206040518083038186803b158015610d1e57600080fd5b505afa158015610d32573d6000803e3d6000fd5b505050506040513d601f19601f82011682018060405250810190610d569190612671565b90508215610e00576003546040516323b872dd60e01b81526001600160a01b03808916926323b872dd92610d9292339216908890600401612840565b602060405180830381600087803b158015610dac57600080fd5b505af1158015610dc0573d6000803e3d6000fd5b505050506040513d601f19601f82011682018060405250810190610de49190612574565b610e005760405162461bcd60e51b81526004016104e790612aae565b6001600160a01b0386166323b872dd3330610e1b898861219f565b6040518463ffffffff1660e01b8152600401610e3993929190612840565b602060405180830381600087803b158015610e5357600080fd5b505af1158015610e67573d6000803e3d6000fd5b505050506040513d601f19601f82011682018060405250810190610e8b9190612574565b610ea75760405162461bcd60e51b81526004016104e790612ce7565b610eb1858461219f565b610f3782886001600160a01b03166370a08231306040518263ffffffff1660e01b8152600401610ee19190612812565b60206040518083038186803b158015610ef957600080fd5b505afa158015610f0d573d6000803e3d6000fd5b505050506040513d601f19601f82011682018060405250810190610f319190612671565b9061219f565b14610f545760405162461bcd60e51b81526004016104e790612bfd565b505b610f5e61238e565b60045480825260208083018b90526001600160a01b038a16604080850191909152606084018a905260055460009384526006909252918290205551600790610fa7908990612783565b9081526040519081900360200181205490600890610fc6908a90612783565b908152604080519182900360209081018320600454600090815291522091909155600790610ff5908990612783565b90815260405190819003602090810190912060058054825460018181018555600094855285852090910191909155815490810182559152825160049091027f036b6384b5eca791c62761152d0c79bb0604c104a5fb6f4eb0703f3154bb3db08101918255838301518051859461108f937f036b6384b5eca791c62761152d0c79bb0604c104a5fb6f4eb0703f3154bb3db101920190612302565b5060408201516002820180546001600160a01b0319166001600160a01b03909216919091179055606082015180516110d1916003840191602090910190612302565b5050507fa4aba828f3e002828bc8c9a3dce8c73e4c4250ad7d23266ecf830126d4ecc3f8600454878660405161110993929190612e83565b60405180910390a160045461111f9060016121fc565b60045550506001805550505050505050565b60606009805480602002602001604051908101604052809291908181526020016000905b828210156112005760008481526020908190208301805460408051601f60026000196101006001871615020190941693909304928301859004850281018501909152818152928301828280156111ec5780601f106111c1576101008083540402835291602001916111ec565b820191906000526020600020905b8154815290600101906020018083116111cf57829003601f168201915b505050505081526020019060010190611155565b50505050905090565b6003546002546001600160a01b0390911691565b611225611fff565b6001600160a01b03166112366112c9565b6001600160a01b03161461127f576040805162461bcd60e51b81526020600482018190526024820152600080516020612f3a833981519152604482015290519081900360640190fd5b600080546040516001600160a01b03909116907f8be0079c531659141344cd1fd0a4f28419497f9722a3daafe3b4186f6b6457e0908390a3600080546001600160a01b0319169055565b6000546001600160a01b031690565b6112e0611fff565b6001600160a01b03166112f16112c9565b6001600160a01b03161461133a576040805162461bcd60e51b81526020600482018190526024820152600080516020612f3a833981519152604482015290519081900360640190fd5b6113448282612256565b6113605760405162461bcd60e51b81526004016104e790612a1c565b5050565b60606005805480602002602001604051908101604052809291908181526020016000905b82821015611200578382906000526020600020906004020160405180608001604052908160008201548152602001600182018054600181600116156101000203166002900480601f01602080910402602001604051908101604052809291908181526020018280546001816001161561010002031660029004801561144e5780601f106114235761010080835404028352916020019161144e565b820191906000526020600020905b81548152906001019060200180831161143157829003601f168201915b50505091835250506002828101546001600160a01b031660208084019190915260038401805460408051601f600019600185161561010002019093169590950491820184900484028501840181528185529094019390918301828280156114f65780601f106114cb576101008083540402835291602001916114f6565b820191906000526020600020905b8154815290600101906020018083116114d957829003601f168201915b50505050508152505081526020019060010190611388565b60026001541415611554576040805162461bcd60e51b815260206004820152601f6024820152600080516020612ed3833981519152604482015290519081900360640190fd5b6002600155611562816103b1565b61157e5760405162461bcd60e51b81526004016104e790612dde565b60008181526006602052604081205460058054909190811061159c57fe5b6000918252602091829020600360049092020101805460408051601f60026000196101006001871615020190941693909304928301859004850281018501909152818152928301828280156116325780601f1061160757610100808354040283529160200191611632565b820191906000526020600020905b81548152906001019060200180831161161557829003601f168201915b5050505050905060056001600580549050038154811061164e57fe5b9060005260206000209060040201600560066000858152602001908152602001600020548154811061167c57fe5b906000526020600020906004020160008201548160000155600182018160010190805460018160011615610100020316600290046116bb9291906123bf565b5060028281015482820180546001600160a01b0319166001600160a01b0390921691909117905560038084018054611707939285019260001960018316156101000201909116046123bf565b505050600082815260066020819052604082205460058054919391600019810190811061173057fe5b90600052602060002090600402016000015481526020019081526020016000208190555060006008826040516117669190612783565b9081526040805191829003602090810183206000878152915220549150600790611791908490612783565b908152602001604051809103902060016007846040516117b19190612783565b90815260200160405180910390208054905003815481106117ce57fe5b90600052602060002001546007836040516117e99190612783565b9081526020016040518091039020828154811061180257fe5b9060005260206000200181905550600060056007846040516118249190612783565b908152602001604051809103902060016007866040516118449190612783565b908152602001604051809103902080549050038154811061186157fe5b90600052602060002001548154811061187657fe5b90600052602060002090600402016000015490508160088460405161189b9190612783565b9081526040805191829003602090810183206000868152915220919091556007906118c7908590612783565b90815260200160405180910390208054806118de57fe5b6001900381819060005260206000200160009055905560058054806118ff57fe5b600082815260208120600460001990930192830201818155906119256001830182612442565b6002820180546001600160a01b0319169055611945600383016000612442565b505090557f0f65cb8d5f5b4b4ad28112e29bdb4a9e2b2fec5f6abdd1a13d2870af787a14d6846040516119789190612e7a565b60405180910390a15050600180555050565b61199261238e565b61199b826103b1565b6119b75760405162461bcd60e51b81526004016104e790612dde565b6000828152600660205260409020546005805490919081106119d557fe5b906000526020600020906004020160405180608001604052908160008201548152602001600182018054600181600116156101000203166002900480601f016020809104026020016040519081016040528092919081815260200182805460018160011615610100020316600290048015611a915780601f10611a6657610100808354040283529160200191611a91565b820191906000526020600020905b815481529060010190602001808311611a7457829003601f168201915b50505091835250506002828101546001600160a01b031660208084019190915260038401805460408051601f60001960018516156101000201909316959095049182018490048402850184018152818552909401939091830182828015611b395780601f10611b0e57610100808354040283529160200191611b39565b820191906000526020600020905b815481529060010190602001808311611b1c57829003601f168201915b5050505050815250509050919050565b6000600980549050600a83604051611b619190612783565b90815260200160405180910390205410801561040d575081604051602001611b899190612783565b604051602081830303815290604052805190602001206009600a84604051611bb19190612783565b90815260200160405180910390205481548110611bca57fe5b90600052602060002001604051602001611be4919061279f565b60405160208183030381529060405280519060200120149050919050565b611c0a611fff565b6001600160a01b0316611c1b6112c9565b6001600160a01b031614611c64576040805162461bcd60e51b81526020600482018190526024820152600080516020612f3a833981519152604482015290519081900360640190fd5b60026001541415611caa576040805162461bcd60e51b815260206004820152601f6024820152600080516020612ed3833981519152604482015290519081900360640190fd5b6002600155611cb881611b49565b611cd45760405162461bcd60e51b81526004016104e7906129d9565b600781604051611ce49190612783565b9081526040519081900360200190205415611d115760405162461bcd60e51b81526004016104e790612baa565b6000600a82604051611d239190612783565b9081526020016040518091039020549050600960016009805490500381548110611d4957fe5b9060005260206000200160098281548110611d6057fe5b906000526020600020019080546001816001161561010002031660029004611d899291906123bf565b50600980548291600a916000198101908110611da157fe5b90600052602060002001604051611db8919061279f565b9081526020016040518091039020819055507fc8934a36da06d01c466bff2a6d368394fb69c8396e9c23b09982068a2c6bc0b082604051611df9919061297f565b60405180910390a16009805480611e0c57fe5b600190038181906000526020600020016000611e289190612442565b9055505060018055565b6009541190565b611e41611fff565b6001600160a01b0316611e526112c9565b6001600160a01b031614611e9b576040805162461bcd60e51b81526020600482018190526024820152600080516020612f3a833981519152604482015290519081900360640190fd5b6001600160a01b038116611ee05760405162461bcd60e51b8152600401808060200182810382526026815260200180612ef36026913960400191505060405180910390fd5b600080546040516001600160a01b03808516939216917f8be0079c531659141344cd1fd0a4f28419497f9722a3daafe3b4186f6b6457e091a3600080546001600160a01b0319166001600160a01b0392909216919091179055565b6060611f4682611e32565b611f625760405162461bcd60e51b81526004016104e790612e20565b60098281548110611f6f57fe5b600091825260209182902001805460408051601f6002600019610100600187161502019094169390930492830185900485028101850190915281815292830182828015610a9d5780601f10611fd257610100808354040283529160200191610a9d565b820191906000526020600020905b815481529060010190602001808311611fe05750939695505050505050565b3390565b600061200e82611b49565b1561202b5760405162461bcd60e51b81526004016104e790612992565b600954604051600a9061203f908590612783565b9081526040516020918190038201902091909155600980546001810182556000919091528351612096927f6e1540171b6c0c960b71a7020d9f60077f6af931a8bbf590da0223dacf75c7af90920191850190612302565b507fdb74f4d32b97da9b3b9b907aa3fd5df938c018e13fe235d9883d0a0836c6bddb826040516120c6919061297f565b60405180910390a1506001919050565b6000826120e557506000612132565b828202828482816120f257fe5b041461212f5760405162461bcd60e51b8152600401808060200182810382526021815260200180612f196021913960400191505060405180910390fd5b90505b92915050565b600080821161218e576040805162461bcd60e51b815260206004820152601a60248201527f536166654d6174683a206469766973696f6e206279207a65726f000000000000604482015290519081900360640190fd5b81838161219757fe5b049392505050565b6000828211156121f6576040805162461bcd60e51b815260206004820152601e60248201527f536166654d6174683a207375627472616374696f6e206f766572666c6f770000604482015290519081900360640190fd5b50900390565b60008282018381101561212f576040805162461bcd60e51b815260206004820152601b60248201527f536166654d6174683a206164646974696f6e206f766572666c6f770000000000604482015290519081900360640190fd5b60006001600160a01b03831661227e5760405162461bcd60e51b81526004016104e790612c9e565b606482111561229f5760405162461bcd60e51b81526004016104e790612a64565b600380546001600160a01b0319166001600160a01b03851617905560028290556040517f4eb219df0340f60919e8d674bf59e394f31252dd52d9e11992e45c300f692052906122f19085908590612864565b60405180910390a150600192915050565b828054600181600116156101000203166002900490600052602060002090601f016020900481019282612338576000855561237e565b82601f1061235157805160ff191683800117855561237e565b8280016001018555821561237e579182015b8281111561237e578251825591602001919060010190612363565b5061238a929150612489565b5090565b6040518060800160405280600081526020016060815260200160006001600160a01b03168152602001606081525090565b828054600181600116156101000203166002900490600052602060002090601f0160209004810192826123f5576000855561237e565b82601f10612406578054855561237e565b8280016001018555821561237e57600052602060002091601f016020900482015b8281111561237e578254825591600101919060010190612427565b50805460018160011615610100020316600290046000825580601f106124685750612486565b601f0160209004906000526020600020908101906124869190612489565b50565b5b8082111561238a576000815560010161248a565b80356001600160a01b038116811461041057600080fd5b600082601f8301126124c5578081fd5b813567ffffffffffffffff808211156124da57fe5b604051601f8301601f1916810160200182811182821017156124f857fe5b60405282815284830160200186101561250f578384fd5b82602086016020830137918201602001929092529392505050565b60006020828403121561253b578081fd5b6125448261249e565b9392505050565b6000806040838503121561255d578081fd5b6125668361249e565b946020939093013593505050565b600060208284031215612585578081fd5b8151801515811461212f578182fd5b6000602082840312156125a5578081fd5b813567ffffffffffffffff8111156125bb578182fd5b6125c7848285016124b5565b949350505050565b600080600080600060a086880312156125e6578081fd5b853567ffffffffffffffff808211156125fd578283fd5b61260989838a016124b5565b96506126176020890161249e565b9550604088013591508082111561262c578283fd5b50612639888289016124b5565b9350506126486060870161249e565b949793965091946080013592915050565b60006020828403121561266a578081fd5b5035919050565b600060208284031215612682578081fd5b5051919050565b6000806000806080858703121561269e578384fd5b84359350602085013567ffffffffffffffff808211156126bc578485fd5b6126c8888389016124b5565b94506126d66040880161249e565b935060608701359150808211156126eb578283fd5b506126f8878288016124b5565b91505092959194509250565b6000815180845261271c816020860160208601612ea2565b601f01601f19169290920160200192915050565b60008151835260208201516080602085015261274f6080850182612704565b905060018060a01b0360408401511660408501526060830151848203606086015261277a8282612704565b95945050505050565b60008251612795818460208701612ea2565b9190910192915050565b60008083546001808216600081146127be57600181146127d557612804565b60ff198316865260028304607f1686019350612804565b600283048786526020808720875b838110156127fc5781548a8201529085019082016127e3565b505050860193505b509195945050505050565b90565b6001600160a01b0391909116815260200190565b6001600160a01b0392831681529116602082015260400190565b6001600160a01b039384168152919092166020820152604081019190915260600190565b6001600160a01b03929092168252602082015260400190565b6000602080830181845280855180835260408601915060408482028701019250838701855b828110156128d057603f198886030184526128be858351612704565b945092850192908501906001016128a2565b5092979650505050505050565b6000602080830181845280855180835260408601915060408482028701019250838701855b828110156128d057603f1988860301845261291e858351612730565b94509285019290850190600101612902565b6020808252825182820181905260009190848201906040850190845b818110156129685783518352928401929184019160010161294c565b50909695505050505050565b901515815260200190565b6000602082526125446020830184612704565b60208082526027908201527f4368616e6e656c52656769737472793a2063617465676f727920616c726561646040820152661e48195e1a5cdd60ca1b606082015260800190565b60208082526023908201527f4368616e6e656c52656769737472793a2063617465676f7279206e6f742065786040820152621a5cdd60ea1b606082015260800190565b60208082526028908201527f4368616e6e656c52656769737472793a2073657420706c6174666f726d206665604082015267194819985a5b195960c21b606082015260800190565b6020808252602a908201527f4368616e6e656c52656769737472793a20696e76616c696420706c6174666f726040820152696d20666565207261746560b01b606082015260800190565b6020808252602d908201527f4368616e6e656c52656769737472793a20506c6174666f726d2066656520747260408201526c185b9cd9995c8819985a5b1959609a1b606082015260800190565b60208082526041908201527f4368616e6e656c52656769737472793a204e6f7420656e6f7567682071756f7460408201527f6520746f6b656e20617070726f76656420666f722074686520726567697374656060820152603960f91b608082015260a00190565b60208082526028908201527f4368616e6e656c52656769737472793a20696e76616c69642074697070696e67604082015267206164647265737360c01b606082015260800190565b60208082526033908201527f4368616e6e656c52656769737472793a206368616e6e656c73207769746820676040820152721a5d995b8818d85d1959dbdc9e48195e1a5cdd606a1b606082015260800190565b60208082526037908201527f4368616e6e656c52656769737472793a204e6f6e2d7374616e6461726420455260408201527f43323020746f6b656e206e6f7420737570706f72746564000000000000000000606082015260800190565b60208082526024908201527f4368616e6e656c52656769737472793a206164642063617465676f72792066616040820152631a5b195960e21b606082015260800190565b60208082526029908201527f4368616e6e656c52656769737472793a20696e76616c696420706c6174666f726040820152686d206164647265737360b81b606082015260800190565b6020808252603d908201527f4368616e6e656c52656769737472793a2051756f746520746f6b656e2074726160408201527f6e73666572206661696c656420666f7220746865207265676973746572000000606082015260800190565b6020808252602d908201527f446f206e6f742070617920455448207768656e2072656769737465722077697460408201526c341022a9219918103a37b5b2b760991b606082015260800190565b6020808252602d908201527f4368616e6e656c52656769737472793a20706c6174666f726d2066656520747260408201526c185b9cd9995c8819985a5b1959609a1b606082015260800190565b60208082526022908201527f4368616e6e656c52656769737472793a20696e76616c6964206368616e6e656c604082015261125960f21b606082015260800190565b60208082526027908201527f4368616e6e656c52656769737472793a20696e76616c69642063617465676f726040820152660f240d2dcc8caf60cb1b606082015260800190565b6000602082526125446020830184612730565b90815260200190565b9283526001600160a01b03919091166020830152604082015260600190565b60005b83811015612ebd578181015183820152602001612ea5565b83811115612ecc576000848401525b5050505056fe5265656e7472616e637947756172643a207265656e7472616e742063616c6c004f776e61626c653a206e6577206f776e657220697320746865207a65726f2061646472657373536166654d6174683a206d756c7469706c69636174696f6e206f766572666c6f774f776e61626c653a2063616c6c6572206973206e6f7420746865206f776e6572a2646970667358221220a8f2ee7a678ae1d6dfd2a265294e59c4e5a0c35b08583741ff2190d3687fdd2264736f6c634300070600334368616e6e656c52656769737472793a20696e76616c696420706c6174666f72",
  "linkReferences": {},
  "deployedLinkReferences": {}
}